S013000073656E736F726D6F64756C2E7372656356
S113000086C00000A1C000009FC000009DC0000089
S11300109BC0000099C00000E7C0000095C000002C
S113002093C0000091C000008FC000008DC000008C
S11300308BC0000089C0000087C0000085C000009C
S113004083C0000081C000007FC000008DC000009C
S113005039C1000079C0000077C0000075C00000FD
S1130060EAC0000071C000006FC000006DC0000055
S11300706BC0000069C0000067C0000065C00000DC
S113008063C0000061C000005FC000000763423627
S1130090B79BD8A71A39685618AEBAAB558C1D3C15
S11300A0B7CC5763BD6DEDFD753EF6177231BF00D9
S11300B00000803F08000000BE922449123EABAA13
S11300C0AA2ABECDCCCC4C3E00000080BEABAAAA6E
S11300D0AA3E00000000BF000000803F00000000B6
S11300E000084178D3BB4387D1133D190E3CC3BDEF
S11300F04282AD2B3E68EC8276BED98FE1A93E4C9C
S113010080EFFFBE01C4FF7F3F0000000000112408
S11301101FBECFEFD0E4DEBFCDBF11E0A0E0B1E061
S1130120E8E1F0E100E00BBF02C007900D92A630B9
S1130130B107D9F721E0A6E0B1E001C01D92A835CE
S1130140B207E1F7E1D066C75BCF9093C500809317
S1130150C40080E98093C10086E08093C2000895C2
S113016081E080931F0108951F920F920FB60F92A2
S113017011240BB60F922F933F934F935F938F935A
S11301809F93EF93FF93E8E3F1E0808191810196DF
S113019091838083FC01EA5FFE4F218D2EBD2EB535
S11301A03197208350910601252F30E02F5F3F4F78
S11301B041E08217930709F040E0442331F081E0E5
S11301C0511101C080E08111409AFF91EF919F91FC
S11301D08F915F914F913F912F910F900BBE0F9094
S11301E00FBE0F901F9018951F920F920FB60F928B
S11301F011240BB60F922F933F934F935F936F93FA
S11302007F938F939F93AF93BF93EF93FF93A8DF55
S1130210FF91EF91BF91AF919F918F917F916F91DA
S11302205F914F913F912F910F900BBE0F900FBE96
S11302300F901F9018951F920F920FB60F921124D2
S11302400BB60F922F933F934F935F936F937F93CC
S11302508F939F93AF93BF93EF93FF9378946091A1
S1130260790070E080E090E0B5D36093440170932E
S11302704501809346019093470120E030E040EA35
S113028050E436D420E030E040E85BE331D46093BE
S11302904001709341018093420190934301FF9187
S11302A0EF91BF91AF919F918F917F916F915F91EA
S11302B04F913F912F910F900BBE0F900FBE0F9057
S11302C01F9018951F920F920FB60F9211248F93BF
S11302D09F938091C60080933F01909104018913FC
S11302E00CC083E080931F0182E78093200180E3A8
S11302F08093210181E3809322019F918F910F903C
S11303000FBE0F901F90189586E091E0A6D28FE75C
S113031091E01BDF11B8EAE7F0E08FE8808380E228
S113032080937C007894808180648083CCE7D0E0E3
S11303300F2EF7E2BF2EF02D6894AA24A5F80AE048
S113034010E08881803209F070C0C0904001D090E4
S11303504101E0904201F090430120E030E040E8A8
S113036050E4C701B60127D4462E572E682E792EA5
S113037020E030E040E450E4C701B6011CD4262E4E
S1130380372E882E992E2CE53FE846E352E4642D5F
S1130390752D862D972DACD32B013C012AE939E12B
S11303A040EA53E4622D732D882D992DA1D39B012E
S11303B0AC01C301B20178D22B013C01A701960123
S11303C0C701B60195D323E333E94FE454E490D352
S11303D09B01AC01C301B20168D22B013C012AE9A3
S11303E039E346E754E4C701B60182D39B01AC016B
S11303F0C301B20159D22AE939E143E054E455D2A8
S113040026D4E0904801F09049019701220F331F50
S11304100F2EFAE4EF2EF1E0FF2EF02DE20EF31E84
S1130420A8D2F70171836083BCC18881813209F04D
S113043070C0C0904001D0904101E0904201F09022
S1130440430120E030E040E850E4C701B601B3D3F3
S1130450462E572E682E792E20E030E040E450E4FA
S1130460C701B601A8D3262E372E882E992E2FEC3D
S113047037EF43E85FE3642D752D862D972D38D330
S11304802B013C0120E030E048E852E4622D732D5A
S1130490882D992D2DD39B01AC01C301B20104D247
S11304A02B013C01A7019601C701B60121D326E621
S11304B036E646EB53E41CD39B01AC01C301B20105
S11304C0F4D12B013C012DEC3CEC4AE254E4C7018D
S11304D0B6010ED39B01AC01C301B201E5D12AE9F7
S11304E039E146EF53E4E1D1B2D3E0904801F09012
S11304F049019701220F331F0F2EFAE4EF2EF1E08A
S1130500FF2EF02DE20EF31E34D2F70171836083C7
S113051048C18881863209F070C0C0904001D090F3
S11305204101E0904201F090430120E030E040E8D6
S113053050E4C701B6013FD3462E572E682E792EBC
S113054020E030E040E450E4C701B60134D3262E65
S1130550372E882E992E28E539E342E051E4642DA4
S1130560752D862D972DC4D22B013C0125E83BE641
S113057042EA52E4622D732D882D992DB9D29B0144
S1130580AC01C301B20190D12B013C01A70196013A
S1130590C701B601ADD22DEC3CE44DE853E4A8D23A
S11305A09B01AC01C301B20180D12B013C012AE9BA
S11305B039E14FEC53E4C701B6019AD29B01AC0177
S11305C0C301B20171D12AE939ED41E853E46DD197
S11305D03ED3E0904801F09049019701220F331F68
S11305E00F2EFAE4EF2EF1E0FF2EF02DE20EF31EB3
S11305F0C0D1F70171836083D4C08881873209F048
S113060060C020E030E046E153E460914001709125
S1130610410180914201909143016AD220E030E08F
S113062049EB53E441D120E030E04CE55FE33DD1B8
S1130630C62ED72EE82EF92E982F4C2D5D2D692F1E
S11306407F2D40933B0150933C0160933D01709397
S11306503E01E8E5F1E060817181882777FD8095AE
S1130660982FBAD19B01AC016C2D7D2D8E2D9F2D21
S11306701CD17FD1E8E5F1E071836083CB01AA2727
S113068097FDA095BA2FC0900001D0900101E09091
S11306900201F0900301C816D906EA06FB0674F0BD
S11306A0F094E094D094C094C11CD11CE11CF11CC2
S11306B08C159D05AE05BF050CF073C010923A0170
S11306C074C08881C0904001D0904101E090420103
S11306D0F090430120E030E040E850E4C701B60167
S11306E06AD2462E572E682E792E20E030E040E460
S11306F050E4C701B6015FD2262E372E882E992EDC
S113070020E030E048E451E4642D752D862D972DCA
S1130710EFD12B013C0126E636E649EC52E4622D8A
S1130720732D882D992DE4D19B01AC01C301B20135
S1130730BBD02B013C01A7019601C701B601D8D15A
S113074023E333EB41E953E4D3D19B01AC01C3016F
S1130750B201ABD02B013C012AE939E947EB53E460
S1130760C701B601C5D19B01AC01C301B2019CD044
S11307702AE939E94DE353E498D069D2E09048017D
S1130780F09049019701220F331F0F2EFAE4EF2E48
S1130790F1E0FF2EF02DE20EF31EEBD0F701718392
S11307A0608380913A018111B8828881863209F48C
S11307B049C080913A0181114BC08881873209F088
S11307C047C040C085E0EFE1F1E0808381E6E0E2EC
S11307D0F1E080838091480190914901282F205DA8
S11307E0E1E2F1E02083FC01EE0FFF1FE65BFE4F28
S11307F020813181C90164E670E0E5D3605DE2E205
S1130800F1E06083C901B801DED3282FCB01B80120
S1130810DAD3805DE3E2F1E08083205D209324015C
S113082089B1803849F486E091E036D08FEF97E4BF
S11308300197F1F700C00000EAE7F0E080818064EE
S113084080837FCDA8821092490110924801E8CF9D
S11308508881873209F0B6CFE3CF20E424B921ECB4
S11308602CBD2CB52F7E2CBD1EBCE89AE9E6F0E029
S1130870208123602083229A5798EDE6F0E02081BE
S113088021602083E8E6F0E0208124602083389A08
S1130890FC0113AA12AA0895FC0113AA12AA818DBD
S11308A08EBD2A9A2A9808955058BB27AA270ED09D
S11308B0E5C0D6D030F0DBD020F031F49F3F11F406
S11308C01EF4CBC00EF4E095E7FBC1C0E92FE7D0DE
S11308D080F3BA17620773078407950718F071F459
S11308E09EF5FFC00EF4E0950B2EBA2FA02D0B0140
S11308F0B90190010C01CA01A0011124FF27591B61
S113090099F0593F50F4503E68F11A16F040A22F66
S1130910232F342F4427585FF3CF469537952795D7
S1130920A795F0405395C9F77EF41F16BA0B620BD6
S1130930730B840BBAF09150A1F0FF0FBB1F661F1D
S1130940771F881FC2F70EC0BA0F621F731F841F60
S113095048F4879577956795B795F7959E3F08F086
S1130960B3CF9395880F08F09927EE0F9795879545
S1130970089504D06894B111B5C0089598D088F052
S11309809F5790F0B92F9927B751A0F0D1F0660F77
S1130990771F881F991F1AF0BA95C9F712C0B13092
S11309A081F09FD0B1E008959CC0672F782F8827ED
S11309B0B85F39F0B93FCCF3869577956795B395D1
S11309C0D9F73EF490958095709561957F4F8F4F40
S11309D09F4F0895E89409C097FB3EF49095809545
S11309E0709561957F4F8F4F9F4F9923A9F0F92FF1
S11309F096E9BB279395F695879577956795B7956F
S1130A00F111F8CFFAF4BB0F11F460FF1BC06F5F54
S1130A107F4F8F4F9F4F16C0882311F096E911C066
S1130A20772321F09EE8872F762F05C0662371F087
S1130A3096E8862F70E060E02AF09A95660F771F9B
S1130A40881FDAF7880F9695879597F9089597F98F
S1130A509F6780E870E060E008959FEF80EC089560
S1130A6000240A9416161706180609060895002489
S1130A700A9412161306140605060895092E039403
S1130A80000C11F4882352F0BB0F40F4BF2B11F477
S1130A9060FF04C06F5F7F4F8F4F9F4F089557FDD6
S1130AA09058440F551F59F05F3F71F04795880FD8
S1130AB097FB991F61F09F3F79F08795089512166F
S1130AC013061406551FF2CF4695F1DF08C016161B
S1130AD017061806991FF1CF8695710561050894CC
S1130AE00895E894BB2766277727CB0197F90895E3
S1130AF00BD0C4CFB5DF28F0BADF18F0952309F086
S1130B00A6CFABCF1124EECFCADFA0F3959FD1F3CC
S1130B10950F50E0551F629FF001729FBB27F00DA7
S1130B20B11D639FAA27F00DB11DAA1F649F6627FC
S1130B30B00DA11D661F829F2227B00DA11D621F4B
S1130B40739FB00DA11D621F839FA00D611D221F05
S1130B50749F3327A00D611D231F849F600D211DE9
S1130B60822F762F6A2F11249F5750408AF0E1F08C
S1130B7088234AF0EE0FFF1FBB1F661F771F881FD5
S1130B8091505040A9F79E3F510570F060CFAACF15
S1130B905F3FECF3983EDCF3869577956795B795C0
S1130BA0F795E7959F5FC1F7FE2B880F911D9695EA
S1130BB0879597F90895FA01EE0FFF1F30962105E6
S1130BC0310599F16115710561F48038BFE39B0724
S1130BD049F168949038810561F08038BFEF9B0734
S1130BE041F0992342F5FF3FE1053105210511F15B
S1130BF0E8940894E795D901AA2329F4AB2FBE2FD2
S1130C00F85FD0F310C0FF5F70F4A695E0F7F739F2
S1130C1050F019F0FF3A38F49F779F930CD00F905F
S1130C2007FC905808953EF018CF60E070E080E82B
S1130C309FE308954FE79F775F934F933F932F93DD
S1130C40E7D02F913F914F915F9152DF25C02FDF65
S1130C50E0F09E37D8F09639B8F49E3848F4672F00
S1130C60782F8827985FF9CF869577956795939520
S1130C709539D0F3B62FB1706B0F711D811D20F41F
S1130C80879577956795939533C04DC02BCF19F40D
S1130C900EF0DDCE26CFE1CE0ADFC8F39638C0F7DA
S1130CA007F80F92E8942BE33AEA48EB5FE72EDF6C
S1130CB00F920F920F924DB75EB70F92E9D0ECE806
S1130CC0F0E03FD04F915F91EF91FF91E595EE1FDA
S1130CD0FF1F49F0FE57E0684427EE0F441FFA95C2
S1130CE0E1F74195550B5BD00F9007FE4FC0089577
S1130CF0882371F4772321F09850872B762F07C02F
S1130D00662311F499270DC09051862B70E060E0A2
S1130D102AF09A95660F771F881FDAF7880F969541
S1130D20879597F908959F3F31F0915020F4879566
S1130D3077956795B795880F911D9695879597F93F
S1130D400895DF93CF931F930F93FF92EF92DF9257
S1130D507B018C01689405C0DA2EEF01D5DEFE011B
S1130D60E894A5912591359145915591AEF3EF0104
S1130D70ADDDFE019701A801DA9479F7DF90EF90D9
S1130D80FF900F911F91CF91DF9108959B01AC01CA
S1130D9060E070E080E89FE3AEC059CEC4CF87DE48
S1130DA0E8F39923D9F3940F511DBBF391505040AC
S1130DB094F059F0882332F0660F771F881F915002
S1130DC05040C1F79E3F510544F7880F911D9695F9
S1130DD0879597F908955F3FACF0983E9CF0BB2748
S1130DE0869577956795B79508F4B1609395C1F7A3
S1130DF0BB0F58F711F460FFE8CF6F5F7F4F8F4F41
S1130E009F4FE3CF6FCE0EF08ECF27CE68941FCEC8
S1130E104EDEC8F39923D1F3C6F3DF93CF931F9328
S1130E200F93FF92C92FDD2788232AF02197660F9D
S1130E30771F881FDAF720E030E040E85FEB9FE39C
S1130E40883920F0803E30F021968F772EDDE4EB58
S1130E50F0E003C02ADDE1EEF0E073DF8B01BE01B8
S1130E60EC01FB2E6F5771097595771F880B990B51
S1130E70B3DD28E132E741E35FE346DEAF2D9801BD
S1130E80AE01FF900F911F91CF91DF911FDDF6CD41
S1130E90FA01DC01AA0FBB1F9B01AC01BF5728F468
S1130EA022273327442750781FC0B75188F4AB2F2B
S1130EB00024469537952795011CA395D2F300206D
S1130EC069F0220F331F441FB395DAF30DD0ECCC35
S1130ED061307105A0E88A07B94630F49B01AC0182
S1130EE06627772788279078309621F020833183EE
S1130EF04283538308950CD0C1CDB9DD40F0B0DDF9
S1130F0030F021F45F3F19F0A2CD5111EBCDA5CD06
S1130F10C6DD98F39923C9F35523B1F3951B550BFB
S1130F20BB27AA2762177307840738F09F5F5F4FB8
S1130F30220F331F441FAA1FA9F333D00E2E3AF0F9
S1130F40E0E830D091505040E695001CCAF729D013
S1130F50FE2F27D0660F771F881FBB1F2617370762
S1130F604807AB07B0E809F0BB0B802DBF01FF2792
S1130F7093585F4F2AF09E3F510568F068CDB2CD7B
S1130F805F3FECF3983EDCF3869577956795B795CC
S1130F90F7959F5FC9F7880F911D9695879597F9E7
S1130FA00895E1E0660F771F881FBB1F6217730760
S1130FB08407BA0720F0621B730B840BBA0BEE1F75
S1130FC088F7E095089597FB072E16F4009406D051
S1130FD077FD08D00BD007FC05D03EF490958195A1
S1130FE09F4F0895709561957F4F0895AA1BBB1B71
S1130FF051E107C0AA1FBB1FA617B70710F0A61B15
S1131000B70B881F991F5A95A9F780959095BC0135
S10B1010CD010895F894FFCF0F
S109101872FF06000A004D
S9030000FC
